{
  "contractName": "DeFi",
  "abi": [
    {
      "inputs": [
        {
          "internalType": "contract Token",
          "name": "_token",
          "type": "address"
        },
        {
          "internalType": "contract RWD",
          "name": "_rwd",
          "type": "address"
        }
      ],
      "stateMutability": "nonpayable",
      "type": "constructor"
    },
    {
      "inputs": [
        {
          "internalType": "address",
          "name": "",
          "type": "address"
        }
      ],
      "name": "hasStaked",
      "outputs": [
        {
          "internalType": "bool",
          "name": "",
          "type": "bool"
        }
      ],
      "stateMutability": "view",
      "type": "function",
      "constant": true
    },
    {
      "inputs": [
        {
          "internalType": "address",
          "name": "",
          "type": "address"
        }
      ],
      "name": "isStaking",
      "outputs": [
        {
          "internalType": "bool",
          "name": "",
          "type": "bool"
        }
      ],
      "stateMutability": "view",
      "type": "function",
      "constant": true
    },
    {
      "inputs": [],
      "name": "name",
      "outputs": [
        {
          "internalType": "string",
          "name": "",
          "type": "string"
        }
      ],
      "stateMutability": "view",
      "type": "function",
      "constant": true
    },
    {
      "inputs": [],
      "name": "owner",
      "outputs": [
        {
          "internalType": "address",
          "name": "",
          "type": "address"
        }
      ],
      "stateMutability": "view",
      "type": "function",
      "constant": true
    },
    {
      "inputs": [],
      "name": "rwd",
      "outputs": [
        {
          "internalType": "contract RWD",
          "name": "",
          "type": "address"
        }
      ],
      "stateMutability": "view",
      "type": "function",
      "constant": true
    },
    {
      "inputs": [
        {
          "internalType": "uint256",
          "name": "",
          "type": "uint256"
        }
      ],
      "name": "stakers",
      "outputs": [
        {
          "internalType": "address",
          "name": "",
          "type": "address"
        }
      ],
      "stateMutability": "view",
      "type": "function",
      "constant": true
    },
    {
      "inputs": [
        {
          "internalType": "address",
          "name": "",
          "type": "address"
        }
      ],
      "name": "stakingBalance",
      "outputs": [
        {
          "internalType": "uint256",
          "name": "",
          "type": "uint256"
        }
      ],
      "stateMutability": "view",
      "type": "function",
      "constant": true
    },
    {
      "inputs": [],
      "name": "token",
      "outputs": [
        {
          "internalType": "contract Token",
          "name": "",
          "type": "address"
        }
      ],
      "stateMutability": "view",
      "type": "function",
      "constant": true
    },
    {
      "inputs": [
        {
          "internalType": "uint256",
          "name": "_value",
          "type": "uint256"
        }
      ],
      "name": "depositTokens",
      "outputs": [],
      "stateMutability": "payable",
      "type": "function",
      "payable": true
    },
    {
      "inputs": [],
      "name": "withdrawTokens",
      "outputs": [],
      "stateMutability": "nonpayable",
      "type": "function"
    },
    {
      "inputs": [],
      "name": "issueRewards",
      "outputs": [],
      "stateMutability": "nonpayable",
      "type": "function"
    }
  ],
  "bytecode": "0x60806040526040518060400160405280600481526020017f4465466900000000000000000000000000000000000000000000000000000000815250600090805190602001906200005192919062000150565b503480156200005f57600080fd5b5060405162001505380380620015058339818101604052810190620000859190620002c3565b33600160006101000a81548173ffffffffffffffffffffffffffffffffffffffff021916908373ffffffffffffffffffffffffffffffffffffffff16021790555081600260006101000a81548173ffffffffffffffffffffffffffffffffffffffff021916908373ffffffffffffffffffffffffffffffffffffffff16021790555080600360006101000a81548173ffffffffffffffffffffffffffffffffffffffff021916908373ffffffffffffffffffffffffffffffffffffffff16021790555050506200036e565b8280546200015e9062000339565b90600052602060002090601f016020900481019282620001825760008555620001ce565b82601f106200019d57805160ff1916838001178555620001ce565b82800160010185558215620001ce579182015b82811115620001cd578251825591602001919060010190620001b0565b5b509050620001dd9190620001e1565b5090565b5b80821115620001fc576000816000905550600101620001e2565b5090565b600080fd5b600073ffffffffffffffffffffffffffffffffffffffff82169050919050565b6000620002328262000205565b9050919050565b6000620002468262000225565b9050919050565b620002588162000239565b81146200026457600080fd5b50565b60008151905062000278816200024d565b92915050565b60006200028b8262000225565b9050919050565b6200029d816200027e565b8114620002a957600080fd5b50565b600081519050620002bd8162000292565b92915050565b60008060408385031215620002dd57620002dc62000200565b5b6000620002ed8582860162000267565b92505060206200030085828601620002ac565b9150509250929050565b7f4e487b7100000000000000000000000000000000000000000000000000000000600052602260045260246000fd5b600060028204905060018216806200035257607f821691505b6020821081036200036857620003676200030a565b5b50919050565b611187806200037e6000396000f3fe60806040526004361061009c5760003560e01c80638da5cb5b116100645780638da5cb5b14610188578063b0370e0c146101b3578063c93c8f34146101ca578063dd49756e14610207578063fc0c546a14610223578063fd5e6dd11461024e5761009c565b806306fdde03146100a15780631a8972d3146100cc57806345bc78ab146100f75780636f49712b146101345780638d8f2adb14610171575b600080fd5b3480156100ad57600080fd5b506100b661028b565b6040516100c39190610b1d565b60405180910390f35b3480156100d857600080fd5b506100e1610319565b6040516100ee9190610bbe565b60405180910390f35b34801561010357600080fd5b5061011e60048036038101906101199190610c1c565b61033f565b60405161012b9190610c62565b60405180910390f35b34801561014057600080fd5b5061015b60048036038101906101569190610c1c565b610357565b6040516101689190610c98565b60405180910390f35b34801561017d57600080fd5b50610186610377565b005b34801561019457600080fd5b5061019d61053f565b6040516101aa9190610cc2565b60405180910390f35b3480156101bf57600080fd5b506101c8610565565b005b3480156101d657600080fd5b506101f160048036038101906101ec9190610c1c565b61075b565b6040516101fe9190610c98565b60405180910390f35b610221600480360381019061021c9190610d09565b61077b565b005b34801561022f57600080fd5b50610238610a1f565b6040516102459190610d57565b60405180910390f35b34801561025a57600080fd5b5061027560048036038101906102709190610d09565b610a45565b6040516102829190610cc2565b60405180910390f35b6000805461029890610da1565b80601f01602080910402602001604051908101604052809291908181526020018280546102c490610da1565b80156103115780601f106102e657610100808354040283529160200191610311565b820191906000526020600020905b8154815290600101906020018083116102f457829003601f168201915b505050505081565b600360009054906101000a900473ffffffffffffffffffffffffffffffffffffffff1681565b60056020528060005260406000206000915090505481565b60076020528060005260406000206000915054906101000a900460ff1681565b6000600560003373ffffffffffffffffffffffffffffffffffffffff1673ffffffffffffffffffffffffffffffffffffffff168152602001908152602001600020549050600081116103fe576040517f08c379a00000000000000000000000000000000000000000000000000000000081526004016103f590610e44565b60405180910390fd5b600260009054906101000a900473ffffffffffffffffffffffffffffffffffffffff1673ffffffffffffffffffffffffffffffffffffffff1663a9059cbb33836040518363ffffffff1660e01b815260040161045b929190610e64565b6020604051808303816000875af115801561047a573d6000803e3d6000fd5b505050506040513d601f19601f8201168201806040525081019061049e9190610eb9565b506000600560003373ffffffffffffffffffffffffffffffffffffffff1673ffffffffffffffffffffffffffffffffffffffff168152602001908152602001600020819055506000600760003373ffffffffffffffffffffffffffffffffffffffff1673ffffffffffffffffffffffffffffffffffffffff16815260200190815260200160002060006101000a81548160ff02191690831515021790555050565b600160009054906101000a900473ffffffffffffffffffffffffffffffffffffffff1681565b600160009054906101000a900473ffffffffffffffffffffffffffffffffffffffff1673ffffffffffffffffffffffffffffffffffffffff163373ffffffffffffffffffffffffffffffffffffffff16146105f5576040517f08c379a00000000000000000000000000000000000000000000000000000000081526004016105ec90610f32565b60405180910390fd5b60005b6004805490508110156107585760006004828154811061061b5761061a610f52565b5b9060005260206000200160009054906101000a900473ffffffffffffffffffffffffffffffffffffffff16905060006009600560008473ffffffffffffffffffffffffffffffffffffffff1673ffffffffffffffffffffffffffffffffffffffff168152602001908152602001600020546106969190610fdf565b9050600081111561074357600360009054906101000a900473ffffffffffffffffffffffffffffffffffffffff1673ffffffffffffffffffffffffffffffffffffffff1663a9059cbb83836040518363ffffffff1660e01b81526004016106fe929190610e64565b6020604051808303816000875af115801561071d573d6000803e3d6000fd5b505050506040513d601f19601f820116820180604052508101906107419190610eb9565b505b5050808061075090611010565b9150506105f8565b50565b60066020528060005260406000206000915054906101000a900460ff1681565b600081116107be576040517f08c379a00000000000000000000000000000000000000000000000000000000081526004016107b5906110a4565b60405180910390fd5b600260009054906101000a900473ffffffffffffffffffffffffffffffffffffffff1673ffffffffffffffffffffffffffffffffffffffff166323b872dd3330846040518463ffffffff1660e01b815260040161081d939291906110c4565b6020604051808303816000875af115801561083c573d6000803e3d6000fd5b505050506040513d601f19601f820116820180604052508101906108609190610eb9565b5080600560003373ffffffffffffffffffffffffffffffffffffffff1673ffffffffffffffffffffffffffffffffffffffff16815260200190815260200160002060008282546108b091906110fb565b92505081905550600660003373ffffffffffffffffffffffffffffffffffffffff1673ffffffffffffffffffffffffffffffffffffffff16815260200190815260200160002060009054906101000a900460ff1661096c576004339080600181540180825580915050600190039060005260206000200160009091909190916101000a81548173ffffffffffffffffffffffffffffffffffffffff021916908373ffffffffffffffffffffffffffffffffffffffff1602179055505b6001600760003373ffffffffffffffffffffffffffffffffffffffff1673ffffffffffffffffffffffffffffffffffffffff16815260200190815260200160002060006101000a81548160ff0219169083151502179055506001600660003373ffffffffffffffffffffffffffffffffffffffff1673ffffffffffffffffffffffffffffffffffffffff16815260200190815260200160002060006101000a81548160ff02191690831515021790555050565b600260009054906101000a900473ffffffffffffffffffffffffffffffffffffffff1681565b60048181548110610a5557600080fd5b906000526020600020016000915054906101000a900473ffffffffffffffffffffffffffffffffffffffff1681565b600081519050919050565b600082825260208201905092915050565b60005b83811015610abe578082015181840152602081019050610aa3565b83811115610acd576000848401525b50505050565b6000601f19601f8301169050919050565b6000610aef82610a84565b610af98185610a8f565b9350610b09818560208601610aa0565b610b1281610ad3565b840191505092915050565b60006020820190508181036000830152610b378184610ae4565b905092915050565b600073ffffffffffffffffffffffffffffffffffffffff82169050919050565b6000819050919050565b6000610b84610b7f610b7a84610b3f565b610b5f565b610b3f565b9050919050565b6000610b9682610b69565b9050919050565b6000610ba882610b8b565b9050919050565b610bb881610b9d565b82525050565b6000602082019050610bd36000830184610baf565b92915050565b600080fd5b6000610be982610b3f565b9050919050565b610bf981610bde565b8114610c0457600080fd5b50565b600081359050610c1681610bf0565b92915050565b600060208284031215610c3257610c31610bd9565b5b6000610c4084828501610c07565b91505092915050565b6000819050919050565b610c5c81610c49565b82525050565b6000602082019050610c776000830184610c53565b92915050565b60008115159050919050565b610c9281610c7d565b82525050565b6000602082019050610cad6000830184610c89565b92915050565b610cbc81610bde565b82525050565b6000602082019050610cd76000830184610cb3565b92915050565b610ce681610c49565b8114610cf157600080fd5b50565b600081359050610d0381610cdd565b92915050565b600060208284031215610d1f57610d1e610bd9565b5b6000610d2d84828501610cf4565b91505092915050565b6000610d4182610b8b565b9050919050565b610d5181610d36565b82525050565b6000602082019050610d6c6000830184610d48565b92915050565b7f4e487b7100000000000000000000000000000000000000000000000000000000600052602260045260246000fd5b60006002820490506001821680610db957607f821691505b602082108103610dcc57610dcb610d72565b5b50919050565b7f596f75206d7573742068617665207374616b656420746f6b656e7320746f207760008201527f6974686472617700000000000000000000000000000000000000000000000000602082015250565b6000610e2e602783610a8f565b9150610e3982610dd2565b604082019050919050565b60006020820190508181036000830152610e5d81610e21565b9050919050565b6000604082019050610e796000830185610cb3565b610e866020830184610c53565b9392505050565b610e9681610c7d565b8114610ea157600080fd5b50565b600081519050610eb381610e8d565b92915050565b600060208284031215610ecf57610ece610bd9565b5b6000610edd84828501610ea4565b91505092915050565b7f5468652063616c6c6572206d75737420626520746865206f776e657200000000600082015250565b6000610f1c601c83610a8f565b9150610f2782610ee6565b602082019050919050565b60006020820190508181036000830152610f4b81610f0f565b9050919050565b7f4e487b7100000000000000000000000000000000000000000000000000000000600052603260045260246000fd5b7f4e487b7100000000000000000000000000000000000000000000000000000000600052601260045260246000fd5b7f4e487b7100000000000000000000000000000000000000000000000000000000600052601160045260246000fd5b6000610fea82610c49565b9150610ff583610c49565b92508261100557611004610f81565b5b828204905092915050565b600061101b82610c49565b91507fffffffffffffffffffffffffffffffffffffffffffffffffffffffffffffffff820361104d5761104c610fb0565b5b600182019050919050565b7f416d6f756e74206d7573742062652067726561746572207468616e2030000000600082015250565b600061108e601d83610a8f565b915061109982611058565b602082019050919050565b600060208201905081810360008301526110bd81611081565b9050919050565b60006060820190506110d96000830186610cb3565b6110e66020830185610cb3565b6110f36040830184610c53565b949350505050565b600061110682610c49565b915061111183610c49565b9250827fffffffffffffffffffffffffffffffffffffffffffffffffffffffffffffffff0382111561114657611145610fb0565b5b82820190509291505056fea26469706673582212200c141433e43c2d04fddbd34f4708bbb4c2a8b486658cb4f3b1ea336e23f938c664736f6c634300080e0033",
  "immutableReferences": {},
  "source": "// SPDX-License-Identifier: GPL-3.0\npragma solidity >=0.5.0 <0.9.0;\n\nimport \"./Token.sol\";\nimport \"./RWD.sol\";\n\ncontract DeFi {\n  string public name = \"DeFi\";\n  address public owner;\n  Token public token;\n  RWD public rwd;\n\n  address[] public stakers;\n\n  mapping(address => uint256) public stakingBalance;\n  mapping(address => bool) public hasStaked;\n  mapping(address => bool) public isStaking;\n\n  constructor(Token _token, RWD _rwd) {\n    owner = msg.sender;\n    token = _token;\n    rwd = _rwd;\n  }\n\n  //staking function\n  function depositTokens(uint256 _value) public payable {\n    require(_value > 0, \"Amount must be greater than 0\");\n    //Transfer tokens to this contract address for staking\n    token.transferFrom(msg.sender, address(this), _value);\n    //updating staing balance\n    stakingBalance[msg.sender] += _value;\n\n    if (!hasStaked[msg.sender]) {\n      //updating stakers array\n      stakers.push(msg.sender);\n    }\n    //updating staking status\n    isStaking[msg.sender] = true;\n    hasStaked[msg.sender] = true;\n  }\n\n  function withdrawTokens() public {\n    uint256 balance = stakingBalance[msg.sender];\n    require(balance > 0, \"You must have staked tokens to withdraw\");\n\n    //transfer tokens to sender\n    token.transfer(msg.sender, balance);\n    //updating staking balance\n    stakingBalance[msg.sender] = 0;\n    //updating staking status\n    isStaking[msg.sender] = false;\n  }\n\n  function issueRewards() public {\n    //calculate total staked tokens\n    require(msg.sender == owner, \"The caller must be the owner\");\n\n    for (uint256 i = 0; i < stakers.length; i++) {\n      address staker = stakers[i];\n      uint256 earned = stakingBalance[staker] / 9;\n      //transfer reward to staker\n      if (earned > 0) {\n        rwd.transfer(staker, earned);\n      }\n    }\n  }\n}\n",
  "sourcePath": "/Users/xolmer/code/contracts-test-ground/xolmerdefi/contracts/DeFi.sol",
  "compiler": {
    "name": "solc",
    "version": "0.8.14+commit.80d49f37.Emscripten.clang"
  },
  "schemaVersion": "3.4.7",
  "updatedAt": "2022-06-08T18:32:57.819Z",
  "networkType": "ethereum",
  "devdoc": {
    "kind": "dev",
    "methods": {},
    "version": 1
  },
  "userdoc": {
    "kind": "user",
    "methods": {},
    "version": 1
  }
}